:100000000C94CB040C94E8040C94E8040C94E804DD
:100010000C94E8040C94E8040C94E8040C94E804B0
:100020000C94E8040C94E8040C94922D0C94652E26
:100030000C94DA260C94E8040C94E8040C94E8047C
:100040000C94E8040C94E8040C94E8040C94E80480
:100050000C94E8040C9467270C94E8040C94E804CE
:100060000C94E8040C94E8040C94E8040C94E80460
:100070000C94E8040C94E8040C94E8040C94E80450
:100080000C94E8040C94E8040C94E8040C94E80440
:100090000C94E8040C94E8040C94E8040C94E80430
:1000A0000C94E8040C94E8040C94E8040A20202042
:1000B000004E554D002020200020202020200053FD
:1000C00043522020002020202020004341502020A7
:1000D000000A0A2020202000556E6B6E6F770052B8
:1000E0004742004D6F7573650044656661756C74B9
:1000F000004C617965723A00202020202000A90080
:10010000AA00D900DA0047784878015200000000C0
:10011000A8005F006000610056005C005D005E00AA
:10012000570059005A005B0058000000620063004D
:100130000000025200000000530001000100010015
:1001400001000100010001000100010001000100A7
:10015000010000000100010000000052000000004A
:10016000427801004C784A78447801004B7849780D
:1001700043780100010001000100000001000100BE
:10018000000000010101010101010101020202025E
:100190000202020202030303030303030304040431
:1001A00004040404050505050506060606060707FA
:1001B00007070708080808090909090A0A0A0B0BB2
:1001C0000B0C0C0C0D0D0D0E0E0E0F0F0F10101151
:1001D00011111212131314141515161617171818D7
:1001E00019191A1A1B1B1C1D1D1E1E1F202021223F
:1001F00022232424252626272829292A2B2C2D2D85
:100200002E2F30313232333435363738393A3B3CA1
:100210003D3E3F404142434445464748494A4C4D94
:100220004E4F50515354555658595A5B5D5E5F615D
:100230006264656668696B6C6D6F707273757778F0
:100240007A7B7D7E8082838587888A8C8E8F91934E
:100250009596989A9C9EA0A2A3A5A7A9ABADAFB175
:10026000B3B5B7BABCBEC0C2C4C6C9CBCDCFD1D45A
:10027000D6D8DBDDDFE2E4E7E9EBEEF0F3F5F8FA00
:10028000FDFF002E00AE00AF00DA0281FFD9F1DBE6
:1002900020A4A62EAF00A0C0D30000A1C8D30000A8
:1002A000AED580A81F408D14200007087F080700E6
:1002B0003E5B4F5B3E003E6B4F6B3E001C3E7C3E08
:1002C0001C00183C7E3C18001C577D571C001C5E0F
:1002D0007F5E1C0000183C180000FFE7C3E7FF002A
:1002E000001824180000FFE7DBE7FF0030483A065B
:1002F0000E00262979292600407F05050700407F4A
:1003000005253F005A3CE73C5A007F3E1C1C080074
:10031000081C1C3E7F0014227F2214005F5F005FD8
:100320005F0006097F017F00006689956A006060B2
:100330006060600094A2FFA2940008047E0408009C
:1003400010207E20100008082A1C0800081C2A081B
:1003500008001E10101010000C1E0C1E0C0030386F
:100360003E383000060E3E0E060000000000000081
:1003700000005F000000000700070000147F147FEA
:100380001400242A7F2A12002313086462003649CD
:1003900056205000000807030000001C2241000006
:1003A0000041221C00002A1C7F1C2A0008083E086D
:1003B00008000080703000000808080808000000ED
:1003C000606000002010080402003E5149453E00D4
:1003D00000427F4000007249494946002141494D91
:1003E00033001814127F10002745454539003C4A58
:1003F0004949310041211109070036494949360070
:10040000464949291E000000140000000040340045
:1004100000000008142241001414141414000041B8
:10042000221408000201590906003E415D594E00A0
:100430007C1211127C007F49494936003E414141FE
:1004400022007F4141413E007F49494941007F09E7
:10045000090901003E41415173007F0808087F00EF
:1004600000417F4100002040413F01007F081422ED
:1004700041007F40404040007F021C027F007F041B
:1004800008107F003E4141413E007F0909090600F6
:100490003E4151215E007F091929460026494949FC
:1004A000320003017F0103003F4040403F001F2016
:1004B00040201F003F4038403F0063140814630091
:1004C0000304780403006159494D4300007F414112
:1004D0004100020408102000004141417F00040255
:1004E00001020400404040404000000307080000B3
:1004F0002054547840007F28444438003844444411
:100500002800384444287F00385454541800000808
:100510007E09020018A4A49C78007F0804047800D7
:1005200000447D4000002040403D00007F102844F2
:10053000000000417F4000007C04780478007C08C3
:1005400004047800384444443800FC18242418007B
:1005500018242418FC007C0804040800485454544F
:10056000240004043F4424003C4040207C001C2024
:1005700040201C003C4030403C00442810284400EF
:100580004C9090907C004464544C440000083641E8
:100590000000000077000000004136080000020162
:1005A000020402003C2623263C000000000000005C
:1005B000404040F0F8F8FF38FFF8F83FF8F8FF380F
:1005C000FFF8F8F040404000000000000080C0C08C
:1005D000C0800000C0C08000000080C0C000C0C05B
:1005E000000080C0C00000000000C0C0C0C0C0004B
:1005F000C0C000000000000000000000000000007B
:1006000000000000000000000000000000000000EA
:1006100000000000000000000000000000000000DA
:10062000000000000000000000C0F0F8FC3E1E06C4
:10063000010000007F4141417F007F4141417F0037
:100640000080C0E07E5B4F5BFEC00000C000DCD7D6
:10065000DEDEDED7DC00C00000000000000000008D
:10066000000000000000000000000000000000008A
:10067000494949FFFFFFFFE0DFBFBF00BFBFDFE029
:10068000FFFFFFFF49494900000000001F3F606075
:10069000E0BF1F007F7F071E381E077F7F007F7F20
:1006A0000E1F3B716000000000007F7F0C0C0C00EF
:1006B0007E7E007F7E0303007F7E03037E7E030336
:1006C0007F7E000F3E703C063C703E0F00327B493F
:1006D000493F7E007F7E0303001E3F69696F26004D
:1006E000000000000000000000030F1F3F3C787076
:1006F000600000007F4141417F007F4141417F0018
:10070000307B7F7830202030787F3B0003000F7FE4
:100710000F0F0F7F0F00030000000000000000001B
:1007200000000000000000000000000000000000C9
:10073000010101070F0F7F0F7F0F0F7E0F0F7F0F3C
:100740007F0F0F0701010100000000000000000002
:100750000001010000000000000000000000000097
:100760000000000000000000000000000000000089
:100770000000000000000000000000000000000079
:100780000000000000000000000000000000000069
:100790000000000000000000000000000000000059
:1007A0000000000000000000000000000000000049
:1007B0000000000000000000000000000000000039
:1007C0000000000000000000000000000000000029
:1007D0000000000000000000000000000000000019
:1007E000000000000000000000000A034E0050005E
:1007F00041004400000010034E004F00540046002A
:1008000049004E00440000000403090409025B0093
:10081000030100A0FA0904000001030101000921FD
:1008200011010001224400070581030800010904A9
:100830000100020300000009211101000122220031
:1008400007058203200001070503032000010904B6
:100850000200010300000009211101000122B6007D
:100860000705840320000112010002000000084374
:10087000A760020100010200010660FF0961A101F9
:100880000962150026FF009520750881020963158D
:100890000026FF00952075089102C005010902A1FC
:1008A0000185020901A10005091901290815002582
:1008B000019508750181020501093009311581256D
:1008C0007F95027508810609381581257F95017588
:1008D000088106050C0A38021581257F95017508E7
:1008E0008106C0C005010980A101850319012AB74D
:1008F00000150126B700950175108100C0050C098F
:1009000001A101850419012AA002150126A0029562
:100910000175108100C005010906A10185060507C2
:1009200019E029E7150025019508750181020507E1
:10093000190029EF1500250195F0750181020508C0
:10094000190129059505750191029501750391011C
:10095000C005010906A101050719E029E7150025D1
:100960000195087501810295017508810105071936
:100970000029FF150026FF0095067508810005086F
:1009800019012905150025019505750191029501AB
:1009900075039101C00011241FBECFEFDAE0DEBF66
:1009A000CDBF12E0A0E0B1E0EEEEF7E602C00590A8
:1009B0000D92A632B107D9F725E0A6E2B2E001C058
:1009C0001D92A33BB207E1F70E948C150C948B3368
:1009D0000C94000082E00895A0E2B0E0E2EFF4E0C1
:1009E0000C94593060E088EF90E00E94291C60E090
:1009F00081EF90E00E94291C809140029091410279
:100A00000E94020760E0813009F465C0823009F479
:100A100065C0811166C089EE90E00E94291C60E0EB
:100A200081ED90E00E94291C0E948224182F85EC01
:100A300090E011FF02C08BEC90E060E00E94291C66
:100A400089EB90E012FF02C08FEB90E060E00E9423
:100A5000291C85EB90E010FD02C081EB90E060E086
:100A60000E94291C60E08CEA90E00E94291C809181
:100A700029021F928F938CE691E09F938F9381E0E0
:100A800090E08C0F9D1F9F938F930E94A73060E092
:100A9000CE0101960E940E1C809128021F928F9316
:100AA00088E791E09F938F9381E090E08C0F9D1FEA
:100AB0009F938F930E94A73060E0CE0101960E9421
:100AC0000E1C0FB6F894DEBF0FBECDBF80E0A0961F
:100AD000E3E00C94753083EE90E09FCF8FED90E0D3
:100AE0009CCF88ED90E099CFA2E0B0E0EAE7F5E096
:100AF0000C9455307C01D62E8DB79EB79A8389838E
:100B0000462F50E0EDB7FEB7E41BF50B0FB6F89497
:100B1000FEBF0FBEEDBF0DB71EB70F5F1F4F60E0EA
:100B200070E0C8010E94A030F7018081813059F443
:100B30009181909329028281809328022FEFF801FE
:100B40002083918382836D2DC8010E946E29898143
:100B50009A810FB6F8949EBF0FBE8DBF2296E7E034
:100B60000C9471308330C0F46530B0F44430A0F49C
:100B7000E62FF0E095E0899FE00DF11D1124EE0FC6
:100B8000FF1FEE0FFF1FE40FF11DEE0FFF1FE65FCB
:100B9000FE4F85919491089581E090E008950E9420
:100BA000B2050895833088F461110FC0E82FF0E09A
:100BB000EE0FFF1F81E04827E40FF11DEE0FFF1F2E
:100BC000E250FF4F85919491089581E090E008955F
:100BD0000E94D205089581E008950E94EB050895D2
:100BE00081E008950E94EB0508950E94F2050895A2
:100BF00008950E94F8050895A6E0B0E0E2E0F6E06E
:100C00000C94593049835A839E8330912F028981F5
:100C10009A8131111AC03E81332399F0222389F041
:100C20000E94FD0B182F682F89819A810E94CB0B9F
:100C300069817A81812F0E9426132696E3E00C9425
:100C400075300E94E40B182FF3CF0E94FD0B6981D1
:100C50007A81F1CFFC01262F40815181628173811D
:100C6000848195810E94FC050895CF93DF93D82F4E
:100C7000C92F61E00E942A066D2F7C2F0E94ED058E
:100C8000DF91CF910895CF93DF93D82FC92F60E0E4
:100C90000E942A066D2F7C2F0E94F905DF91CF91CB
:100CA000089521E030E0A90102C0440F551F8A9544
:100CB000E2F7CA010E94EC0A0895CF93C82F81E0A1
:100CC00090E00C2E02C0880F991F0A94E2F70E9450
:100CD00060108C2F0E945106CF91089581E00895F5
:100CE0000E946E060895CF93C82F0E949D0A8C2FF4
:100CF0000E9470062FEF84E39CE0215080409040DA
:100D0000E1F700C00000CF91089581E00E947306D2
:100D10000E948B27089580E00E9473060E949C2702
:100D200008950F931F93CF93DF938C0161E00E948E
:100D30002A06EC01B8010E94F505882309F449C090
:100D4000B801CE010E942F24882309F442C0B801C3
:100D5000CE010E9463208823E1F1B801CE010E94F8
:100D600038208823B1F1B801CE010E94A81588234C
:100D700081F1B801CE010E94F615882351F1B80126
:100D8000CE010E943914882321F1F801858188233E
:100D900081F0CA35FCE7DF0739F178F4C130ECE7C0
:100DA000DE07F9F0C330FCE7DF07C9F0C115DC4707
:100DB00071F0C8010E94F0050DC0CB35ECE7DE07ED
:100DC000B1F0CC35DC47A9F70E943110F2CF0E9478
:100DD000850680E0DF91CF911F910F9108950E94C9
:100DE00043100E948B06F5CF0E943B10E2CF0E9479
:100DF0003F10DFCF0E94430780E00E947D190E94D0
:100E0000D02608959C01892F99270097E9F09C012D
:100E100088E0A90174E0569547957A95E1F7411568
:100E2000510511F08C5F9A01A90156954795569589
:100E300047954115510511F08E5F9A01369527951A
:100E4000232B09F08F5F089580E0E3CF81E00895C0
:100E500080FF02C02E9A08952E980895CF93DF93B5
:100E6000D82F0E942607C82F882319F08D2F0E94A3
:100E700028078C2FDF91CF910895269A2E980895F8
:100E80000E942E0708950E9475240E94400708952D
:100E9000CF930E947524C82F80912A028C1779F075
:100EA000C0932A020E941B2760932B0270932C028E
:100EB00080932D0290932E028C2F0E944007CF9199
:100EC0000895ADE0B0E0E7E6F7E00C945A304887CB
:100ED00059876A877B878C879D8791110E943C0F79
:100EE0001F8286E0FE013896DE01119601900D9278
:100EF0008A95E1F78D8181110DC029813A814B815D
:100F00005C816D817E818F810E94820E2D96E2E050
:100F10000C947630CE0101960E9435068111EDCFFA
:100F2000F5CFFC018481813021F4808191810E9480
:100F30002F0C0895662329F00E94D1210E9492224D
:100F400008950E941A22FACFCF93C82F882399F0D0
:100F50008CEF8C0F813A88F48C2F0E941B258823FC
:100F600029F08C2F0E94C4250E94D40F8C2F0E9440
:100F7000AA250E94D40FCF91089580E28C0F88306B
:100F800048F4C77081E001C0880FCA95EAF70E9453
:100F90001D0FEFCF8BE58C0F833038F42C2F2452AC
:100FA000330BC9010E94AE24E6CFE8E5EC0FEB312C
:100FB00050F4F0E0EE0FFF1FEE57FE4F808191815D
:100FC0000E94D424D8CF83E38C0F8331A0F661E054
:100FD0008C2F0E949A07CFCF882381F19CEF980F26
:100FE000913A28F40E94C4250E94D40F089590E2FB
:100FF000980F983050F4877091E001C0990F8A954E
:10100000EAF7892F0E94230FEFCF9BE5980F9330CB
:1010100028F480E090E00E94AE24089598E5980FAF
:101020009B3128F480E090E00E94D424089593E35B
:10103000980F933118F460E00E949A0708951F9367
:10104000CF93DF93182FEB010E94A407209739F468
:10105000812F0E94EC07DF91CF911F9108958FE9B6
:101060009FE00197F1F700C000002197EFCF60E00B
:1010700070E0893311F460E570E00E941F08089564
:10108000882321F00E941D0F0E94D40F0895882309
:1010900021F00E94230F0E94D40F0895A0E0B0E039
:1010A000E4E5F8E00C9454306C01D62FC72FFC0116
:1010B0001581068102950F700E94120FE82E882379
:1010C000F9F0E12E1123E1F08C2F807F803461F064
:1010D00080E28D0F8830F0F08C2F807E803221F4FA
:1010E000D230C0F00023B1F08091520382FF12C0D1
:1010F00082E00E9404100E94120F91E0E82EE9267F
:10110000EC2FE295EF70C03CB0F5F0E0E357FC4CFB
:101110000C944430E12CF4CF0C2F0F70C03110F040
:101120000295007F112399F0002359F080E28D0F82
:10113000883010F0D11107C0802F0E941D0F0E942F
:10114000D40F8D2F51C0802F0E942E0FF8CF8D2FDE
:101150000E94EC07002379F080E28D0F883010F0B8
:10116000D11104C0802F0E94230F03C0802F0E9442
:10117000340F0E94D40FEE2089F00E940E0F80FDE4
:101180000DC0F60115820E94080F0E94280BC601AF
:101190000E94640A0E94080F0E94380BCDB7DEB788
:1011A000E8E00C947030FC2FFF70FF2EC07FC0323F
:1011B00019F0F29480EFF822DD2341F0D130D1F123
:1011C000112309F444C00023F1F0BBCF80915203F6
:1011D00082FD15C0112359F0FF2029F08F2D0E94A8
:1011E0001D0F0E94D40F80E00E94A407C4CF80E0AE
:1011F0000E94EC07FF2009F4BECF8F2DB4CF11233E
:1012000069F0011104C08F2D0E944008B4CF013055
:1012100009F0B1CF8F2D0E94540FADCF0111ABCF8C
:101220008F2D0E9447088F2D0E94600F8F2D0E94E6
:10123000430FA1CF112321F0063008F09CCFE3CF5C
:10124000053008F098CF8F2D0E94470894CF0023D7
:10125000D1F3D93349F42FEF87EE93E0215080404A
:101260009040E1F700C000008D2F0E94EC0783CF73
:101270008C2F869586958370882369F0813009F0DC
:101280007ACF8D2F9C2F9370111102C080E090E0D7
:101290000E94D42470CF8D2F9C2F9370111102C007
:1012A00080E090E00E94AE2466CF612F8D2F0E94D7
:1012B0009A0761CF8C2F8370811139C0111129C019
:1012C0004D2F429546954770440F440F2D2F2F7098
:1012D00030E0042E02C0220F331F0A94E2F780E0B0
:1012E00090E0D4FF09C08FE090E002C0880F991F02
:1012F0004A95E2F780959095C695C695C370822B66
:10130000932BC23071F0C33079F0C13039F00E94B4
:10131000F80A0E9475240E9440072DCF0E94EF0A10
:10132000F8CF0E94010BF5CF0E94EC0AF2CF1123F7
:1013300061F1C0FFEECF4D2F429546954770440FA7
:10134000440F2D2F2F7030E0042E02C0220F331FC8
:101350000A94E2F780E090E0D4FF09C08FE090E0CB
:1013600002C0880F991F4A95E2F780959095C6951F
:10137000C695C370822B932BC23069F0C33071F0D5
:10138000C13031F00E94630BC4CF823010F2D3CF52
:101390000E945A0BBECF0E946C0BBBCF0E94100B59
:1013A000B8CFCF70112339F08C2F0E94280B8D2FCE
:1013B0000E944008AECF8D2F0E9447088C2F0E94BC
:1013C000380BA7CFD23F31F170F4D03FB9F0D13F05
:1013D000B1F1112309F44EC0002309F448C08D2F48
:1013E0000E94A40796CFD33FE1F0D43F21F1111121
:1013F000F3CF01114DC08C2F8F71E1CF112341F03C
:10140000053008F086CF8C2F8F710E944A0B81CF58
:101410000530F7CF8C2F8F711111D1CF0E94280B7F
:1014200078CF112329F08C2F8F710E941C0B71CF64
:101430000E94170B6ECF8091520382FD06C08C2F45
:101440008F71112309F4BBCFE9CF112331F063E091
:101450008C2F8F710E94E60F5CCF81E00E940410F8
:10146000023008F456CF82E00E94041052CF8C2F35
:101470008F71D4CF002309F4BECFD93349F4EFEFF5
:10148000F7EE23E0E150F0402040E1F700C000001B
:101490008D2F0E94EC073DCF0F931F93CF93DF93C7
:1014A000EC01688179818D810E943C0C8C010E9445
:1014B000750B0E94EB0AB801CE010E944E08DF9125
:1014C000CF911F910F910895CF93DF93EC018C8101
:1014D000882399F0CE010E949106811111C00E94CB
:1014E000120F882351F08D81882339F080915203A7
:1014F00082FF03C082E00E940410DF91CF91089523
:10150000CE010E944C0ACE010E944306F6CF80E035
:1015100090E00E94AE2480E090E00E94D4240E94DB
:101520003C0F0E94D40F0E94AF220E949222089585
:101530000E94DE250E94870A08950E942B0F0E94B8
:10154000980A0895282F92959F70963091F060F434
:10155000925F9F70923030F481E0203F79F030F458
:10156000283E30F080E008959A5FF3CF243FD1F712
:10157000089581E0283EE0F3213FF9CF0895FC0172
:101580008481882339F0808191810E942F0C0E94F0
:10159000A20A089580E00895A6E0B0E0E2EDFAE046
:1015A0000C945A302696E2E00C947630A7E0B0E036
:1015B000ECEDFAE00C945A302796E2E00C94763089
:1015C00008950E94E00A08950E94E10A9093430260
:1015D00080934202089508950E94E40A089520919C
:1015E000420230914302822B932B0E94E40A089519
:1015F0002091420230914302822393230E94E40A05
:1016000008952091420230914302822793270E943D
:10161000E40A08950E94E00A08950E940A0B0895C2
:101620000E940D0B9093410280934002089580E048
:1016300090E00E94100B089521E030E0A90102C063
:10164000440F551F8A95E2F7CA010E94100B0895B6
:1016500021E030E002C0220F331F8A95E2F780912B
:10166000400290914102822B932B0E94100B08950F
:1016700021E030E002C0220F331F8A95E2F7209567
:1016800030958091400290914102822393230E94E1
:10169000100B089521E030E002C0220F331F8A951D
:1016A000E2F78091400290914102822793270E94A5
:1016B000100B08952091400230914102822B932B10
:1016C0000E94100B08952091400230914102822324
:1016D00093230E94100B0895209140023091410203
:1016E000822793270E94100B089508959B0167702D
:1016F00091E001C0990F6A95EAF763E03695279566
:101700006A95E1F7220F331F220F331FFA01E20F10
:10171000F31F40E050E0682F70E08191DF011197E6
:101720009B01042E02C0369527950A94E2F721709A
:1017300021952827292328272C934F5F5F4F44307A
:10174000510559F708959C01982F977083E03695BD
:1017500027958A95E1F7220F331F220F331FFB01D4
:10176000E20FF31F40E050E080E0219130E0092ECD
:1017700002C0369527950A94E2F721703327042E8C
:1017800001C0220F0A94EAF7822B4F5F5F4F44306B
:10179000510559F70895282F862F953068F4243085
:1017A00050F434E0939FB0011124620F711D44E3A3
:1017B00052E00E94760B08959C5F9230E0F7622F12
:1017C00070E040E352E0F5CF282F953068F4843084
:1017D00090F434E0939FC001112464E372E0820F1F
:1017E000911D0E94A30B08959C5F923020F460E34A
:1017F00072E090E0F6CF80E00895A0E0B0E0E3E092
:10180000FCE00C9453308C01E0904002F0904102D7
:101810008091420290914302E82AF92ACFE0D0E079
:10182000CC24C394D12CC6010C2E02C0880F991F62
:101830000A94E2F78E219F21892B49F4219798F78A
:10184000B12C8B2DCDB7DEB7E9E00C946F30BC2EF8
:10185000B8018C2F0E943F13019781F3F2CFCF93F1
:10186000DF93D82FC92F0E94FD0B6D2F7C2F0E9474
:101870003F13DF91CF9108951F93CF93DF93162FDE
:10188000D72F90912F02992341F0862F972F0E94F6
:101890002F0CDF91CF911F910895882381F0862F1F
:1018A000972F0E94FD0BC82F682F812F9D2F0E941C
:1018B000CB0B612F7D2F8C2F0E943F13EACF862FF9
:1018C000972F0E94E40BC82FF4CF0F931F93CF9351
:1018D000E0914402C7E0809145028E1304C0CF918D
:1018E0001F910F9108950E2F10E0CE9FF00111244B
:1018F000EA5BFD4F20813181428153816481758192
:1019000086810E94D60AF8013196E770E4CF2091D3
:101910007E0230917F02409180025091810260915D
:10192000820270918302809184020E94D60A0895F7
:1019300080918402803178F480918302882359F069
:10194000E09144022091450230917F0240917E0255
:1019500057E02E1301C008956E2F70E05E9FF001D6
:101960001124DF01AA5BBD4F14968C911497882334
:1019700061F111968C911197831327C08C91841378
:1019800024C015968C91159781111FC012968D91C8
:101990009C91A0918002B09181028A1B9B0B883C94
:1019A000910598F4809184028F7080618093840205
:1019B000E45BFD4F80818F70806180838EE792E0D1
:1019C0000E94640A0E94650C0895FB013196E7703D
:1019D000C0CFE09144029091450227E0E91302C094
:1019E00080E00895AE2FB0E02E9FF0011124EA5B55
:1019F000FD4F3181361306C03081381303C0358165
:101A0000341304C0FD013196E770E8CF81E00895FA
:101A10008F929F92AF92BF92DF92EF92FF920F93BD
:101A20001F93CF93DF93CDB7DEB72D970FB6F89402
:101A3000DEBF0FBECDBF8C0186E0F801DE01189637
:101A400001900D928A95E1F7F801E080F580A2807F
:101A5000B38084819EE7892E92E0992E9091820234
:101A600091111BC0882309F4FCC0FF2009F43DC17B
:101A7000C8010E94BF0A882309F437C187E0F80132
:101A8000D40101900D928A95E1F7C4010E9491075B
:101A90000E94980C0E94870CE4C0D0908302209191
:101AA000800230918102A501421B530BDD2009F415
:101AB000DBC0483C510508F0A6C0882309F4D1C01A
:101AC00090917F02918080918402803108F06BC0F8
:101AD000991228C090917E029E1124C0F1105DC021
:101AE0008F708061809384020E94870C8EE792E061
:101AF0000E94640A80918402F8018683F12C8F2D64
:101B00002D960FB6F894DEBF0FBECDBFDF91CF91FB
:101B10001F910F91FF90EF90DF90BF90AF909F903B
:101B20008F900895F11039C040E0692D8E2D0E94EC
:101B3000E90C40E0692D8E2D0E94E90CF82E8111F0
:101B4000DDCF888599850E942F0C292F22952F7033
:101B5000903450F49F70223080F0992399F0F8016E
:101B60009681903178F4CBCF2A5F2F70223078F0B5
:101B7000C8010E94640AFD2CC2CF992319F0882362
:101B800009F4BDCF805E883008F4B9CFF1CF803F33
:101B900008F4B5CF815F8230F7CF809184028160F5
:101BA00080938402ABCF991207C090917E029E1160
:101BB00003C0FF2009F479C0C8010E94BF0A88232E
:101BC00009F493C0FF2009F490C080918402803210
:101BD00088F020917E0230917F023A832983BC8273
:101BE000AB82909182029D831E828F83CE010196EB
:101BF0000E94640A87E0F801AEE7B2E001900D921E
:101C00008A95E1F745CF909184029031A0F4488500
:101C100059856A857B858C859D850E94CC0A8EE7D7
:101C200092E00E94640A87E0F40111928A95E9F734
:101C30000E94870C63CF8823A1F020917F028181CD
:101C40002813BACF80917E028E11B6CFF110B4CF97
:101C50009683C8010E94640A87E0F40111928A9574
:101C6000E9F7FF24F3944BCF483C510508F041C0FD
:101C70008823B9F3FF20C9F190917F0281819813E5
:101C80002AC080917E028E1126C08091840280FD40
:101C900019C08031B8F08683807F803F39F086811B
:101CA000982F907F905F8F70892B8683C8010E9448
:101CB000640A87E0F801AEE7B2E001900D928A95E0
:101CC000E1F7E8CE87E0F801AEE7B2E001900D92CF
:101CD0008A95E1F7C6CFC8010E94BF0A81118ACF59
:101CE00080918402816080938402C8010E94640A0A
:101CF000B8CF488559856A857B858C859D850E94EE
:101D0000CC0A91CFAEE0B0E0E8E8FEE00C945930A8
:101D1000288739874A875B876C877D878E87CE01C6
:101D200008960E94080D8823B1F06C85662341F067
:101D3000288539854A855B857D858E850E94D60AF2
:101D400017E0809144029091450289133EC02E967F
:101D5000E3E00C94753087E0FE013896DE011196C1
:101D600001900D928A95E1F720914502409144023D
:101D70008C85882329F330E0C90101968770992763
:101D800050E08417950799F097E0929FD001939FB8
:101D9000B00D1124AA5BBD4FFE01319601900D924A
:101DA0009A95E1F7809345020E94650CC9CF0E9485
:101DB0009D0A109245021092440287E0EEE7F2E09D
:101DC000DF011D928A95E9F7BBCF189FC00111244E
:101DD0008A5B9D4F0E94080D882309F4B8CFE091DB
:101DE00044021E9FF0011124EA5BFD4F20813181E6
:101DF000428153816481758186810E94D60A8091D7
:101E0000440290E00196877099278093440299CF0D
:101E10008091AD0286958695869508958091AD0254
:101E2000877008959091AD02977081E0911101C083
:101E300080E008958091D90208959091D902982B5D
:101E40009093D9020895982F90958091D902892373
:101E50008093D90208951092D90208959091D802E2
:101E6000982B9093D8020895982F90958091D8023E
:101E700089238093D80208951092D8020895089576
:101E80000E943F0F08959091AE02292F282322230C
:101E900031F0809589238093AE020E94400F08950F
:101EA00008950E94500F08959091AF02292F282382
:101EB000281729F0982B9093AF020E94510F089594
:101EC0009091AF02292F2823222331F08095892376
:101ED0008093AF020E94510F08958091AF02882332
:101EE00029F01092AF0280E00E94510F0895CF9325
:101EF000DF93C091D9028091D802C82BD091AF0254
:101F0000DD2331F00E94FA2481110E946D0FCD2B48
:101F10008C2FDF91CF910895CF93DF93C091430130
:101F2000D09144010E94770F8883C0914301D091E2
:101F3000440148E050E065EA72E0CE010E948A3038
:101F4000892B59F088E0FE01A5EAB2E001900D92DC
:101F50008A95E1F7CE010E948524DF91CF91089503
:101F6000CF93DF93C0914101D09142010E94770F3E
:101F70008983C0914101D091420140E250E065E87F
:101F800072E0CE010E948A30892B59F080E2FE0176
:101F9000A5E8B2E001900D928A95E1F7CE010E948A
:101FA0009024DF91CF9108950E949626813039F4D4
:101FB0008091510387FF03C00E94B00F08950E94D3
:101FC0008C0F089508950E94E20F08959091520396
:101FD00092FF11C098E0899F90011124622B6093B9
:101FE000AD020E94280B8091AD028695869586955C
:101FF0000E94E30F08950E94280B08951092AD02ED
:1020000080E00E94E30F08959091AD0280958923AE
:102010008093AD02282F277021110DC0891759F028
:102020009091520392FF07C08695869586950E94EF
:10203000380B0E94FE0F08959091520392FB2227C5
:1020400020F9281769F080FB92F990935203809150
:102050005103909152030E946B1082E00E94041081
:1020600008958091520382FB882780F991E08927A7
:102070000E941C10089581E00E941C10089580E0C9
:102080000E941C1008956FEF7FEF80E090E00E94A7
:102090008533089580E090E00E9451339C0181E0F7
:1020A000253E3E4F09F080E0089582E090E00E94D6
:1020B0004933089583E090E00E94493390E0089509
:1020C000682F83E090E00E946733089584E090E0F9
:1020D0000E9451330895BC0184E090E00E94853352
:1020E0000895AB01BC018FE090E00E947933089520
:1020F000AB01BC0183E190E00E947933089560E078
:1021000070E0CB010E947810089560E070E0CB0190
:102110000E9471100E947F100895A8E0B0E0E3E9EA
:10212000F0E10C945A3065EE7EEF80E090E00E9482
:10213000853360E082E090E00E94673381E090E0C8
:1021400090934302809342020E94601060E074E129
:1021500084E090E00E94853360E086E090E00E9499
:10216000673360E087E090E00E94673340E050E032
:10217000BA0188E090E00E94793360E083E290E069
:102180000E94673360E08CE090E00E94673360E07B
:102190008DE090E00E94673319821A821B821C82B4
:1021A0001D821E821F82188648E050E067E170E0C1
:1021B000CE0101960E94573340E050E0BA018FE112
:1021C00090E00E9479330E9485102896E2E00C94FA
:1021D00076300E948D100895682F8EE090E00E9466
:1021E00067330895A6E0B0E0E8EFF0E10C945830D2
:1021F0000E940F278C018091DA029091DB028017F8
:10220000910779F019821A820E940F27BC01498137
:102210005A8180E090E00E9461071093DB020093F6
:10222000DA022696E4E00C9474300E941B27609337
:10223000E9027093EA028093EB029093EC026093C0
:10224000E5027093E6028093E7029093E802089516
:102250000E941B276093E9027093EA028093EB02CD
:102260009093EC026093E1027093E2028093E302A8
:102270009093E4020895089508950E943B110895F3
:1022800008950E944011089587E394E10E94A315E8
:102290000E943C110E943D11089581E008950E9422
:1022A0004D1108950E944D110895089508950E94BA
:1022B00055110E94561108950E944A10811102C0C2
:1022C0000E94E9100E9455108093ED020E94661052
:1022D00090935203809351030E9435200E945A101C
:1022E0000E94EC0A80914002909141020E940D0BE5
:1022F00008950E9406270E94541E0E94F5140E9411
:102300005C110E943D070E94641980E00E94CB1A74
:102310000E9441110895A6E0B0E0E1E9F1E10C94DA
:1023200051300E944F11811112C00E94F2100E9480
:102330008F180E94BC1E81116DC00E94C91D0E9491
:10234000D0220E9448072696EBE00C946D300E9444
:102350000B158CEDC82E82E0D82E760110E0F70127
:1023600001917F01812F0E9453141F5F153009F4E2
:102370004EC00817A1F38091ED0281FD0E9459140F
:102380000E945211A82E10E0812F0E945314082F92
:10239000F60191916F01891751F1982E9926F12C30
:1023A000EE24E394892D8E218823C9F0BB24B394B5
:1023B000902F9E21911101C0B12CAA2059F0F982D1
:1023C0001A830E940F27BC0149815A8181E09B2D0D
:1023D0000E9461074B2D6F2D812F0E945A17F39495
:1023E000EE0CF4E0FF12DECFF601319700831F5FA1
:1023F000153051F60E9415110E948F180E94BC1EC4
:10240000811108C00E94C91D0E943B1C98CF08136F
:10241000B2CF8BCF0E942811F5CF1F93CF93DF93BC
:102420000E944413EC01811522E5920708F053C085
:10243000811540E5940708F0DDC0803E9105F8F471
:102440008D3C910508F0AEC0883A910580F4853A3C
:10245000910508F099C08130910521F00497813AE7
:10246000910550F4CE01DF91CF911F910895885AC4
:1024700091094B9708F48BC0C0E0D0E0F3CF8115F1
:1024800050E49507F8F4C11580E2D80708F0CBC0F6
:10249000C83ED10538F3CE019A9581159F4160F76A
:1024A0008D2F0E94E813182FCE0199270E94441304
:1024B000212F30E0322F2227E901CC27DF71C82BF2
:1024C000D92BD0CF99270E944413CC27DF70C82B7B
:1024D000D92BD06AC7CF803842E59407C8F580363B
:1024E00052E5950708F067C0C03482E5D807B0F020
:1024F0008C2F86958695877020E2829FC0011124DB
:10250000C37021E030E0A90102C0440F551FCA95F5
:10251000E2F7EA01C82BD92BDC68A4CFC03252E520
:10252000D50708F041C08C2F8695869520E2829FC2
:10253000C0011124C37021E030E0A90102C0440FA2
:10254000551FCA95E2F7EA01C82BD92BDD688ACF5F
:10255000803C52E5950760F48F71C03AD24508F08F
:102560003FC090E0982F8827EC01C46FD06A7ACFE3
:10257000805C9245809708F07FCFDC2FCC27CC275A
:10258000DF71C06FD06A6ECFA497D0646BCFC85A8A
:10259000D0E0CC0FDD1FC854DE4F0990D881C02D8C
:1025A000D46460CFD0655ECFCF71D0E0DC2FCC2774
:1025B000C16FD06A57CF86958695877020E2829F3B
:1025C000C0011124C37021E030E0A90102C0440F12
:1025D000551FCA95E2F7EA01C82BD92BDA6842CF1A
:1025E0000E94E813C82FD0E0DC2FCC27CC27DF7166
:1025F000D06238CF8F710E94E81365E0D695C795F9
:102600006A95E1F7CF70D0E0DC2FCC27282F30E09F
:1026100084FF05C054E0220F331F5A95E1F7C22B07
:10262000D32BD0691FCF8D2F8F710E94E813182FE5
:10263000CE0199270E944413212F30E0322F222708
:1026400022273F71282B392BE901D2CF462F672F44
:10265000753028F4443080F40E94CF0508957D3F02
:1026600039F4411109C041E060E00E94E805089595
:102670007C3F11F44423C1F380E090E008950E9470
:1026800026130E940D120895803E9105D1F1C8F4E1
:102690008133910509F47FC048F48932910509F42A
:1026A0006FC08A32910509F47DC008958933910580
:1026B000E1F082389105C9F08533910509F45BC0DA
:1026C0000895843E9105D1F148F4823E910531F19F
:1026D000833E910541F181EE90E00895863E91059B
:1026E000C1F1873E9105E1F10895209151032370D6
:1026F000211165C02091520323FF14C089E290E0AC
:1027000008952091510320FD43C03091520330FFC2
:1027100009C024FF4EC080E090E00895209151034D
:1027200022FDF7CF08952091510322FD45C030913D
:10273000520330FD44C024FFF5CFEDCF209152036A
:1027400021FFF0CF8091510384FDE5CF87EE90E02B
:1027500008952091510323FFE5CF24FDDCCFF6CF70
:102760002091510323FD2EC03091520331FFE3CF5E
:1027700084EE90E008952091510325FFD3CFBECF82
:102780002091510325FD21C02091520323FFCACF80
:1027900089E390E008952091510326FFC3CF8AE298
:1027A00090E008952091510326FFBCCF81E390E093
:1027B000089583EE90E0089582EE90E0089580EE13
:1027C00090E0089586EE90E0089585E390E0AACF2A
:1027D0009091510392FF10C041E0282F24712430C2
:1027E00009F040E031E0282F2871283009F030E06E
:1027F000431711F02CE0822793FF10C041E0282FEF
:102800002471243109F040E031E0282F287128316B
:1028100009F030E0431711F02CE082273091520389
:1028200030FF10C051E0282F2171213009F050E015
:1028300041E0282F2871283009F040E0541711F0AA
:1028400029E0822731FF10C041E0282F217121317A
:1028500009F040E031E0282F2871283109F030E0FC
:10286000431711F029E0822794FD877E089580E0C8
:102870000895CF939C01FB01805E9245C1E0809753
:1028800038F4C581C11104C0822F8F710E945D068A
:102890008C2FCF91089508950E944B1408950895A8
:1028A0000E944F140895E82FF0E0E85AFC4F808111
:1028B0000895089580EA8A95F1F7089500C0089573
:1028C0000E945A140895F894E82FE295EF70F0E012
:1028D00041A18F7021E030E0B90102C0660F771F7F
:1028E0008A95E2F7CB01962F9095942391A392A11C
:1028F000892B82A378940895CF93DF93C2EFD1E020
:1029000089918F3F11F00E94631481E0C73FD8077F
:10291000B9F784EF0E94631485EF0E94631486EF79
:102920000E94631487EF0E946314DF91CF91089592
:10293000A0E0B0E0EEE9F4E10C945430EC01D62EC6
:10294000062F10E0C8018E509E4F7C01FC01808153
:102950008F3F09F445C0F894E82FE295EF70F0E05E
:1029600091A18F7021E030E001C0220F8A95EAF733
:10297000892F822B81A382A12095282322A37894DA
:102980000E945E14EEEEF1E091E0C12C81918F3F48
:1029900081F0A82FA295AF70A05EB0E02C9130E03E
:1029A0008F7002C0359527958A95E2F72170892F9F
:1029B000211180E0C82A990F81E0E23FF80731F742
:1029C000F70180818F3F11F00E94631461E0C11014
:1029D00001C060E08D2D0E946014C00FD11FC8821D
:1029E000CDB7DEB7E8E00C9470300E947C1485E02F
:1029F000E8E5F3E0DF01982F1D929A95E9F7E3E50A
:102A0000F3E0DF011D928A95E9F785E00E94491500
:102A10000E944C140895A5E0B0E0E1E1F5E10C94CA
:102A200057301A821982FE01339683E0DF011D922E
:102A30008A95E9F7F12C8E010F5F1F4F6F2DC801AA
:102A40000E949814F394B5E0FB12F8CF45E050E0F3
:102A5000B80183E593E00E948A3021E0892B81F45C
:102A600020E045E068E573E083E593E00E944A15C5
:102A7000182F0E945014812F2596E5E00C94733096
:102A800085E0F801A3E5B3E001900D928A95E1F7A6
:102A9000E8CF0895A0E0B0E0E0E5F5E10C94543013
:102AA000D82EE92EF62ED72F042FC22F222379F00D
:102AB00081E08093F0020E940F279093EF028093B1
:102AC000EE0280E0CDB7DEB7E8E00C947030C09045
:102AD000F002CC20B1F38091EE029091EF020E94BF
:102AE0003827059770F310E0A8016D2D7E2D8F2DEE
:102AF0009D2F0E948A30892B41F0A8016D2D7E2DDB
:102B00008F2D9D2F0E949730CC2D1092F0028C2F8C
:102B1000D9CF0E948B1108950E94D3260E94AF2A1C
:102B20000E9444110E94C92A0E9479110E94D62A4B
:102B30000E94DB2A0E9489150E94DC2A0E947829C3
:102B40000E945711F5CF9093270280932602089593
:102B5000CF93DF93EC01FB018581811104C081E0FB
:102B6000DF91CF9108950E941A0F8272FE01E05208
:102B7000F847EB30F10598F7E756FC4C0C944430DD
:102B80000E94891980E0ECCF882329F00E94ED197A
:102B9000F9CF8823D9F30E94DC19F4CF882329F0D8
:102BA0000E941C1AEFCF8823D9F30E940D1AEACF96
:102BB000882329F00E94401AE5CF8823D9F30E9488
:102BC0002E1AE0CF882329F00E94641ADBCF8823D5
:102BD000D9F30E94521AD6CF882329F00E94821A74
:102BE000D1CF8823D9F30E94731ACCCF1F93CF93F0
:102BF000DF93EC01FB011581112331F011E0812FEE
:102C0000DF91CF911F9108950E941A0F8272FE01E9
:102C1000E054F847ED30F10588F7EC55FC4C0C9486
:102C200044300E949B19EBCF0E94AD19E8CF0E945F
:102C30008919E5CF882329F00E94ED19E0CF882378
:102C4000D9F30E94DC19DBCF882329F00E941C1ADB
:102C5000D6CF8823D9F30E940D1AD1CF882329F02B
:102C60000E94401ACCCF8823D9F30E942E1AC7CFD6
:102C7000882329F00E94641AC2CF8823D9F30E94C6
:102C8000521ABDCF882329F00E94821AB8CF882318
:102C9000D9F30E94731AB3CFA0E0B0E0E2E5F6E109
:102CA0000C945430E82F71110DC0442321F0F0E052
:102CB000EE57FE4F8491682F782FCDB7DEB7E8E04E
:102CC0000C947030262F30E0C72FD0E0F0E0442382
:102CD00021F0EE57FE4FE491F0E086E0829F700114
:102CE000839FF00C11240FEF10E0C701B8010E9480
:102CF0001C30AB01220F331F65E5649FC001659F47
:102D0000900D1124281B390B622F660F620FC8012A
:102D10008C1B9D0B8E9F90018F9F300D9E9F300DC1
:102D20001124832F6C9F60016D9FD00C1124CD2C3A
:102D3000DD24D801AC19BD096D01CE9ED001CF9E16
:102D4000B00DDE9EB00D11246801C61AD108B6017F
:102D50006C9F60016D9FD00C7C9FD00C1124CD2CFA
:102D6000DD240C191D090E9FE0010F9FD00D1E9F41
:102D7000D00D11247D2F6E2F43305105D1F09CEFE3
:102D8000E91693E0F90658F441305105B1F04230AC
:102D9000510509F092CF632F8D2F7E2F8ECF4430B7
:102DA000510571F04630510509F487CF732F8B2FF1
:102DB00084CF7B2F632F8E2F80CF7E2F6B2F7DCFE5
:102DC0006D2F732FF8CF41E00E944C1608959C019F
:102DD00080E090E0269F812D369F800D911D11246B
:102DE0000895622F0895E42FF0E0EE0FFF1FEC5ED0
:102DF000FE4F6081621B0895EF920F931F9310E0C6
:102E00009801220F331F200F311F359527956E2D06
:102E1000620F1F910F91EF9008959091F102982BFE
:102E20009093F102089548E050E067E170E08DE58D
:102E300093E00E9457331092F10208950E94E31626
:102E40000895EDE5F3E08DE0808380916901909134
:102E50006A01A0916B0181839283A3838FE78483AE
:102E60008FEF85830E9413170895E091FD01F09183
:102E7000FE01099508950895FF920F931F93CF9334
:102E8000DF93162F042FF22EC091F901D091FA0191
:102E90000E943B172F2D402F612FFE010995CDB7C2
:102EA000DEB7E5E00C947330E091FB01F091FC019A
:102EB000099508950E944D11089581E008950E949A
:102EC0005D170895982F990F890F93E0980F90310F
:102ED00008F09FE00895A0E0B0E0E1E7F7E10C948E
:102EE00050305C014B01DC018C910E946217C82FAD
:102EF000192F609161036695809165039091660337
:102F00000E94E716F82ED0E0CE01880F991FFC0131
:102F1000E050FF4F6F01C11748F081E01F3008F00B
:102F200080E0CDB7DEB7ECE00C946C30FE01E050F1
:102F3000FF4F82A9D50111969C918923882309F41A
:102F40004DC0F60144894452550B25892452330B58
:102F5000449FB001459F700D700D1124229FC00148
:102F6000239F900D900D1124680F791F062F62305A
:102F7000710520F18FEF613EFEE17F0738F4CB0150
:102F8000B5E096958795BA95E1F7885F91E0A92F0E
:102F9000A80FBB27BB1FFD01F595E7950E2FEE9FF0
:102FA000D001EF9FB00DB00D11246A177B07D8F444
:102FB0008FEF8E0F891758F70FEF090F60915E039F
:102FC00070915F0380916003EF2CF40109950E94DA
:102FD0001E17472F282FCE010E943C172196F2E0A2
:102FE000CF0ED11C98CFEF3F49F391E09E0FE2CF77
:102FF0006CEF76E10E946B170895A0E0B0E0E3E08B
:10300000F8E10C9454307C016B01FC0180810E943A
:103010006217C82F192F609161036695669521E0AC
:10302000620F08F46FEF80916503909166030E9430
:10303000E716082FD0E0C11748F081E01F3008F0F4
:1030400080E0CDB7DEB7E8E00C947030FE01E050D0
:10305000FF4F82A9F70191818923882389F060912C
:103060005E0370915F0380916003202F4C2FF60167
:1030700009950E941E17472F282FCE010E943C174A
:103080002196D9CF61EF76E10E94FD17089563EF95
:1030900076E10E94FD170895A0E0B0E0E2E5F8E1D6
:1030A0000C9454307C01FC0180810E946217C82F6F
:1030B000192F60915E0370915F03809160030E94FD
:1030C0001E17062FD72EC82ED0E0C11748F081E07A
:1030D0001F3008F080E0CDB7DEB7E8E00C94703028
:1030E000FE01E050FF4F82A9F701918189238823D7
:1030F00031F02C2D4D2D602FCE010E943C172196D2
:10310000E4CF81E008950E9481180895FC01808138
:1031100081500E946217692F0E9483180895A4E0CD
:10312000B0E0E5E9F8E10C945A300E941B27609367
:10313000F2027093F3028093F4029093F5022091CF
:103140005D03322F33703983332321F0A22FA695EC
:10315000A695A98330914501323009F492C080F4DC
:10316000311115C010924601609365037093660398
:10317000809367039093680381E08093450103C0C7
:10318000333009F487C02496E2E00C9476308091C5
:103190004901B981B8132EC02370822F90E040916D
:1031A0004A0150E021E08417950709F420E0822FBE
:1031B0008170809348018091620390914701981734
:1031C00039F08093470140E060E080E00E945417AE
:1031D0003981323009F446C078F431112FC0809122
:1031E0004801811119C0809146018F5F809346018B
:1031F00083E0C3CF81E0DCCF89818330C1F18430AB
:10320000D9F1809146018F5F8093460182E08093DF
:1032100045010E945F1721C040E060E080E00E940D
:103220005417809146018F5F8093460182E080931E
:103230004501809148018111A6CFDACF86E491E063
:103240000E944C18909146019F5F909346018823FD
:10325000E9F2809145018230E1F286E491E00E943A
:10326000861891CF86E491E00E944218EBCF86E465
:1032700091E00E944718E6CF86E491E00E94F8179B
:10328000E1CF998190934901237020934A010E94D4
:103290003517AECF8091F10281110E9413178091F2
:1032A000650390916603A0916703B0916803BC0128
:1032B000CD010E944727603171058105910508F411
:1032C00062CF109245015FCFE091F701F091F801D4
:1032D000099581E08093F10248E050E067E170E0F9
:1032E0008DE593E00E9439331092F10280915D03E5
:1032F000843010F40E94211708950895EDE5F3E05D
:10330000908121E092279083109245010E940D1731
:10331000089581E00E947E19089580915D03837075
:10332000811102C01092450180915D038C7F816004
:1033300080935D0308950E948D1981E00E940D170E
:10334000089580915D0383708111109245018091F1
:103350005D038C7F80935D0308950E94A11981E035
:103360000E940D170895982F862F20915D032370DA
:10337000222389F0992381F0953080F49F73990F6F
:10338000990F20915D032370922B90935D0310920F
:1033900045010E940D17089591E0F1CF94E0EFCF21
:1033A000682F80915D03869586958F5F853008F044
:1033B00081E00E94B319089581E00E94D019089518
:1033C000682F90915D03969596958FEF890F9130B8
:1033D00009F484E00E94B319089581E00E94E01985
:1033E0000895982F822F20915D032370222341F0AE
:1033F00090935E0360935F03409360030E940D17F8
:103400000895282FEDE5F3E09181892F90E0438125
:10341000628108960E94F119089581E00E94011AC4
:103420000895282FEDE5F3E0818143816281885082
:10343000990B0E94F119089581E00E94111A0895D4
:10344000282FEDE5F3E0628130E1630F08F46FEFC0
:103450008181438190E00E94F119089581E00E94EA
:10346000201A0895282FEDE5F3E0628130E1631B17
:1034700008F460E08181438190E00E94F119089591
:1034800081E00E94321A0895282FEDE5F3E0438190
:1034900030E1430F08F44FEF8181628190E00E9498
:1034A000F119089581E00E94441A0895282FEDE54E
:1034B000F3E0438130E1431B08F440E08181628105
:1034C00090E00E94F119089581E00E94561A089533
:1034D000EDE5F3E0248130E1230F08F42FEF24839E
:1034E0000E940D17089581E00E94681A0895EDE585
:1034F000F3E0248130E1231B08F420E024830E94C0
:103500000D17089581E00E94771A0895AB0124E613
:1035100030E0BC0188E70E9432289C0181E0232B27
:1035200009F080E00895AB0124E630E0BC0188E7B3
:103530000E947D289C0181E0232B09F080E0089502
:103540000F931F93AC019B0104E610E060E488E751
:103550000E94CA289C0181E0232B09F080E01F9182
:103560000F9108950E94FC2708950895EDE6F3E079
:1035700080E092E0DF019C011D9221503040E1F794
:10358000F0937405E09373058FEF9FEF90932403FE
:10359000809323030895A5E0B0E0E1EDFAE10C94F7
:1035A0005A300E94B51A0E94EA0490E280FF90E827
:1035B00080931F0390931E030E94B21A6BE070E089
:1035C0008FE992E00E94931A811106C01D828D81BD
:1035D0002596E2E00C94763080911F0365E070E060
:1035E00081FD39C08AE992E00E94931A882371F321
:1035F0006DE070E088E892E00E94931A8D83882342
:1036000029F30E941B27DC01CB01805E9044AD4F63
:10361000BF4F80936F0590937005A0937105B09391
:1036200072050E941B27DC01CB0180549B42AE4FE8
:10363000BF4F8093690390936A03A0936B03B09389
:103640006C030E94B61A81E08093220380932103C9
:1036500010922003BCCF85E992E0C6CF20911E03D3
:1036600036E0839FC0011124269F800D911D1124F7
:10367000811522E0920714F080E090E083599C4F7E
:10368000909374058093730508952091730530918C
:1036900074052756334040911E03642F70E0C90122
:1036A0000E941C30481B463010F4240F311D211598
:1036B00082E0380710F020E030E023593C4F30938F
:1036C0007405209373050895CF93DF93982FC62F29
:1036D00081E09A3019F09D3031F480E00E94DB1BCC
:1036E000DF91CF910895209173053091740586E0A4
:1036F000F901A6EFB2E001900D928A95E1F7903EB4
:10370000B8F086E0F90111928A95E9F7C1111CC061
:10371000C0917305D091740546E050E0BE0186EF7C
:1037200092E00E948A30892BE9F40E94451BD8CF91
:10373000F6E09F9FB001112466557D4F46E050E0B2
:10374000C9010E948130E2CFE0917305F0917405C8
:103750009F012A5F3F4F2E173F07D1F2808180954E
:103760008193F9CFCD56D340CE0125E0969587952C
:103770002A95E1F721E030E0A90102C0440F551F6E
:103780008A95E2F7CA014091230350912403842BC8
:10379000952B259645E0D695C7954A95E1F702C049
:1037A000220F331FCA95E2F7822B932B90932403A9
:1037B00080932303BACFCF93382FE0917305F09114
:1037C0007405ED56F34020911E03622F70E0CF0187
:1037D0000E941C30281B822F332369F066E00E9470
:1037E0001030C82FC15010F4CF91089560E080E2EE
:1037F0000E94641BF7CF9F01280F311D2115324015
:1038000018F080E0E0E0F0E08E0F9F2F911D8359CB
:103810009C4F9093740580937305E6CFFF920F93AE
:103820001F93CF93DF93EC01F62EFC010190002053
:10383000E9F78F0101501109C017D10728F0CDB762
:10384000DEB7E5E00C9473306F2D89910E94641B04
:10385000F3CF1F93CF93DF93EC01162FFE018491DA
:10386000811104C0DF91CF911F910895612F0E94B3
:10387000641B2196F3CFA4E0B0E0E1E4FCE10C94FA
:103880005A3080912203811106C080912103249631
:10389000E2E00C9476300E941B27DC01CB01805EB5
:1038A0009044AD4FBF4F80936F0590937005A093E8
:1038B0007105B0937205809121038111E6CF62E01A
:1038C00070E086E892E00E94931A8823F1F281E08A
:1038D00080932103DACFA4E0B0E0E1E7FCE10C94AF
:1038E0004A308C838091230390912403892BE9F043
:1038F000809122038823C9F080912003811115C093
:103900000E943B1C10E01B8244244394512C00E293
:1039100067E0F62E8091230390912403009729F00D
:10392000112351F0FC81F11107C02496E2E10C94BF
:1039300066302B812F5F2B833B81C32ED12C52010C
:1039400002C0AA0CBB1C3A95E2F795012823392343
:10395000232B79F380911F0380FD3DC0960136959E
:10396000279536952795922F8B818295880F8076A3
:103970003FE1380F80934D012093500130934E0169
:103980009093510167E070E08BE491E00E94861A09
:10399000882359F2C60125E0880F991F2A95E1F77F
:1039A00020911F0320FD20C060E270E083599C4FEE
:1039B0000E94A01A882309F4B8CFA094B0948091F3
:1039C0002303909124038A219B21909324038093C5
:1039D00023031F5F9FCF8B81880F880F880F37E0ED
:1039E000380F20E093E0C6CFACEFB2E0E02F1D929D
:1039F000EA95E9F723E032E03A8329836FEF71E03B
:103A0000E981FA81A191FA83E983FB012191BF0148
:103A1000280F392F311DA90143595C4F1A01EA2F94
:103A2000F0E0E450FD4F20E030E06F2C621A842C6F
:103A3000022E01C0880C0A94EAF76101912CD6018C
:103A4000ED906D01E820462D4919477050E0BE2DDC
:103A5000042E01C0BB0F0A94EAF77B2E51954195C5
:103A600051094770552701C0E6944A95EAF7EB2AB9
:103A70004081E42AE082939448E09412E0CF2F5FE3
:103A80003F4F31962830310581F6A7E0B2E0E98159
:103A9000FA81AE17BF0709F0B3CF60E270E08CEF98
:103AA00092E086CF8091210390912203911103C06F
:103AB00091E089270895882369F062E070E084E846
:103AC00092E00E94931A811103C08091210308950E
:103AD0001092210380912103EBCFA9E0B0E0E3E74E
:103AE000FDE10C945A308091200390912203992398
:103AF00021F12091230330912403232BE1F4811140
:103B00001AC0198287E28A831B8280911C038C83EE
:103B100080911D038D83809152018E831F828FEFD0
:103B200088878FE2898769E070E0CE0101960E9464
:103B3000861A811106C0809120032996E2E00C9438
:103B4000763081E080932003F6CF8091200390911E
:103B50002203911103C091E089270895882399F0E9
:103B600062E070E082E892E00E94931A811103C043
:103B7000809120030895109220038FEF9FEF909380
:103B800024038093230380912003E5CF0E94EC045B
:103B90000895A4E0B0E0EFECFDE10C945A30809180
:103BA0002203882309F479C080916D0590916E05F8
:103BB0000E943827C29760F00E940F2790936E05ED
:103BC00080936D0560E080E00E942E1B0E94C61D60
:103BD0008091230390912403892BB1F080912003DD
:103BE000882391F00E941B27DC01CB0180549B426B
:103BF000AE4FBF4F8093690390936A03A0936B030A
:103C0000B0936C030E94A51D80E00E946B1C809104
:103C100021038823F9F00E941B2769837A838B8311
:103C20009C8380916F0590917005A0917105B09172
:103C3000720529813A814B815C81281B390B4A0B23
:103C40005B0BDA01C9018F3F9F4FAF4FBF4710F4A5
:103C50000E94521D8091200381111FC00E941B27CA
:103C600069837A838B839C838091690390916A0333
:103C7000A0916B03B0916C0329813A814B815C81E7
:103C8000281B390B4A0B5B0BDA01C9018F3F9F4F91
:103C9000AF4FBF4710F40E946D1D2496E2E00C94D4
:103CA00076300E944D110895E6E2F3E088E0DF01EE
:103CB0001D928A95E9F70E94711F0895FC012281E7
:103CC00030E02F5F3F4F23703327438150E081E086
:103CD0002417350709F080E008950F931F93CF93C1
:103CE000DF93EC01162F042F0E945E1E811113C07A
:103CF0008A81FE01E80FF11D00FB17F914838F5F25
:103D000083708A8388818F5F888381E0DF91CF9180
:103D10001F910F91089580E0F9CFCF93DF93FC01BD
:103D2000EA01A38182818A17B9F0AE0FBF2FB11DBE
:103D300014968C9187FB992790F98F77DB018C93F0
:103D4000988383818F5F8370838381818F5F818379
:103D500081E0DF91CF91089580E0FBCF462F682F5F
:103D600086E293E00E946D1E0895AB01BC0186E2DD
:103D700093E00E948D1E0895AEE0B0E0E2ECFEE11B
:103D80000C94563080912503882351F0109225031E
:103D90008091280380932903809126038093270331
:103DA0000E94AF1F0E94511E182F882361F110E05E
:103DB0008CEFF82E9DEFE92E1CC01E858D85198392
:103DC000882331F1EA820E940F27BC0149815A8180
:103DD00082E091E00E9461071F83E8860E940F271E
:103DE000682F82E0792F4F81588590E00E9461070B
:103DF000102FBE01635F7F4FCE010E960E94B51E4D
:103E0000082F8111DACF812F2E96E6E00C947230C4
:103E1000FA820E940F27BC0149815A8183E091E018
:103E20000E9461071F83F8860E940F27682F83E096
:103E3000D9CF8FE891E00197F1F700C00000089515
:103E40004AB183E9861B8F7021E030E0B90102C0DE
:103E5000660F771F8A95E2F7CB01962F90959423F2
:103E60009AB99BB1892B8BB9089589B190E023E968
:103E7000261B2F7002C0959587952A95E2F78170D1
:103E800008950895CF93DF93C0E080912E03C81763
:103E900060F00E94191FC0E080912E03C81778F0CF
:103EA0000E94411FDF91CF91089560E08C2F0E9406
:103EB000201F61E08C2F0E94201FCF5FE6CF60E0C3
:103EC0008C2F0E94351FD82F61E08C2F0E94351F48
:103ED000EC2FF0E0E05DFC4F880F8D2B8083CF5FEF
:103EE000DBCF81E080932E030E94421F08951F9331
:103EF000CF93DF93182F440F642BC82FD0E0DE013F
:103F0000A05DBC4FEC918E2F8370681721F1EE0FEE
:103F1000EE0FE62BEC93EF70F0E0E95FFD4FC15D33
:103F2000DC4F90818881980F9883943024F060E072
:103F3000812F0E94AE1E88818D3F24F461E0812F85
:103F40000E94AE1E8881082E000C990B64E070E080
:103F50000E9430308883DF91CF911F910895CF93D5
:103F6000DF93C0E080912E03C81718F0DF91CF9146
:103F7000089561E08C2F0E94351FD82F60E08C2FB0
:103F80000E94351F682F4D2F8C2F0E94771FCF5F07
:103F9000E9CF549A0895FC01EE0FFF1FE80FF91FB7
:103FA000EB58FA4F6183408322830895FF920F9369
:103FB0001F93CF93DF93182F062FF42EC0E0D0E08D
:103FC0002F2D402F612FCE010E94CB1F2196CF3085
:103FD000D105B1F7CDB7DEB7E5E00C9473303BB156
:103FE0003F7E2BB120614FB7F89485E795E0FC0147
:103FF0000196508168E02BB9000000C057FF3BB923
:10400000550F000000C000C000C03BB900C06A9559
:1040100091F755E0823A950751F74FBF8FE594E04D
:104020000197F1F700C0000008950E944310089521
:1040300080E00E94531483FB882780F908950E9432
:104040000B152FEF86E791E0215080409040E1F77B
:1040500000C000000E940B150E941820882321F048
:104060000E9415200E948B2708950E941F2008950A
:10407000CF93DF93EB0186319C4719F50E941A0F0D
:104080009D819923A1F08A7A91E0811101C090E08D
:1040900090933103882349F085E30E94AA250E946A
:1040A000D40F80E0DF91CF91089589E2F6CF80911F
:1040B0003103882321F085E30E94C425F0CF89E2F3
:1040C000FBCF81E0EFCFCF93DF93EC01FB01858144
:1040D000882309F4D2C09E0130572332310508F0FD
:1040E000B2C00E9466109093520380935103FE0168
:1040F000E150F047E232F10520F4EF54FC4C0C940F
:1041000044308091510381608093510393C080912A
:1041100052038860809352038DC080915103826066
:10412000F3CF809151038460EFCF80915103886079
:10413000EBCF809152038160EDCF8091520382607A
:10414000E9CF809151038061DFCF8091510380627C
:10415000DBCF809151038064D7CF0E949D0A80916C
:1041600051038068D1CF809151038C60CDCF809175
:1041700052038360CFCF809151038E7FC5CF809152
:104180005203877FC7CF809151038D7FBDCF809130
:1041900051038B7FB9CF80915103877FB5CF809139
:1041A00052038E7FB7CF809152038D7FB3CF809122
:1041B00051038F7EA9CF809151038F7DA5CF809130
:1041C00051038F7BA1CF0E949D0A809151038F776D
:1041D0009BCF80915103837F97CF809152038C7F37
:1041E00099CF8091510382FB992790F921E0922782
:1041F00090FB82F990FB83F987CF80915203982F2F
:10420000909591708E7F892B90FB81F983CF90914F
:104210005103892F8F7B96FF806476CF0E949D0A81
:1042200090915103892F97FB87F980586DCF81E0DA
:104230000E94EC1080915103909152030E946B10E8
:104240000E949D0A80E0DF91CF91089580E0F0CF39
:1042500090915103892F8F7E94FF806155CF90916B
:104260005103892F8E7F90FF81604ECF9091520332
:10427000892F877F93FF88604DCF81E0E4CF282F7F
:1042800035EB2303C001112497FF04C08058910926
:10429000892F089580589F4FFBCF8091380380FF6E
:1042A0000DC06091580170E0660F771F603871058E
:1042B000C0F561157105B9F1862F089581FF07C01A
:1042C0006091580184E0689FB0011124EFCF82FF14
:1042D00004C06091580188E0F6CF809137038823AD
:1042E000E9F0909157016091580170E0891730F022
:1042F00093E0660F771F9A95E1F7D8CF869F9001DC
:10430000879F300D112483E0220F331F8A95E1F738
:10431000692F70E0C9010E943030C8CF68E070E0BA
:10432000CBCF8FE7089581E008958091380380FF17
:104330000CC06091540170E075956795759567950F
:104340006115710561F1862F089581FF06C06091A6
:10435000540170E075956795F3CF6091540170E05A
:1043600082FD15C0209136032223B1F090915301B4
:104370006091540170E0291750F4269FA001279FF7
:10438000500D1124692F70E0CA010E94303060384E
:104390007105B0F28FE7089561E070E0D4CF81E05D
:1043A0000895E3E3E80FE331E0F5F0E0ED52FC4C73
:1043B0000C9444300E944D21819580933C030895D4
:1043C0000E944D21FACF0E944D21819580933B039D
:1043D00008950E944D21FACF0E94952180933D03BC
:1043E00008950E9495218195F9CF0E94952181958C
:1043F00080933E0308950E949521FACF815D990B29
:1044000021E030E001C0220F8A95EAF780913A035B
:10441000822B80933A0308958091380381608093C2
:1044200038030895809138038260F9CF8091380372
:104430008460F5CF40913B038D3C59F480913C035F
:1044400087FF0DC010923C03442359F410923703A8
:1044500008C08E3C81F480913C0318169CF34423E1
:1044600081F080913D0390913E03892B811159C0C9
:104470001092360308958F3C41F447FFF0CF10921D
:104480003B0380913C038823E0CF803D19F4141650
:10449000B4F3E5CF90913D03893D29F41916FCF65C
:1044A00010923D03DCCF8A3D19F497FFD8CFF8CFA7
:1044B00090913E038B3D29F497FFD1CF10923E039C
:1044C000CECF8C3D19F41916CCF3C9CF9FE2980FCB
:1044D000983090F4815D990B21E030E0B90102C081
:1044E000660F771F8A95E2F7CB01809590913A038A
:1044F000892380933A03B3CF8D3D31F48091380303
:104500008E7F80933803ABCF8E3D21F480913803AA
:104510008D7FF7CF8F3D09F0A2CF809138038B7F3D
:10452000F0CF08950E940F2720913B0330913C0368
:10453000232B222321F08093340390933503209181
:104540003D0330913E03232B222321F0809332033D
:104550009093330389E393E00E949F24089586E0BB
:10456000E9E3F3E0DF011D928A95E9F71092370342
:1045700010923603109238030895FC018281811154
:104580000DC0838181110AC08481811107C081E03F
:104590009581911101C080E08170089581E0FCCF88
:1045A000A6E0B0E0E6EDF2E20C94573086E0E9E3F5
:1045B000F3E09E012F5F3F4FD90101900D928A9544
:1045C000E1F710923B0310923C0310923D031092CE
:1045D0003E038B819C81892B8901882391F08091F6
:1045E0003403909135030E9438279C018091370352
:1045F0008823C9F14091590150E04217530708F44C
:104600003FC08D819E81892B882399F08091320350
:10461000909133030E9438279C01809136038823B0
:1046200009F467C04091550150E04217530708F460
:104630006EC0B80189E393E00E94F825811105C09E
:1046400089E393E00E94BD2281110E94922286E0BC
:10465000F801A9E3B3E001900D928A95E1F726965F
:10466000E5E00C94733040915A019AE0499FA00113
:1046700011244217530728F68F5F8093370302C037
:104680008F3FD1F7FB80FF2059F00E944D2191E030
:104690001F140CF09FEF899F802D112480933B0302
:1046A000FC80FF2059F00E944D2191E01F140CF076
:1046B0009FEF899F802D112480933C0380913B03C1
:1046C000882309F49ECFF0903C03FF2009F499CF92
:1046D0000E943F21811101C081E080933B038F2D17
:1046E0000E943F21882319F080933C038ACF81E008
:1046F000FBCF409156019AE0499FA0011124421737
:10470000530708F096CF8F5F8093360302C08F3F28
:10471000D1F7FD80FF2059F00E94952191E01F14F0
:104720000CF09FEF899F802D112480933D03FE8024
:10473000FF2059F00E94952191E01F140CF09FEF8B
:10474000899F802D112480933E0380913D0388230F
:1047500009F46FCFF0903E03FF2009F46ACF0E9466
:104760003F21811101C081E080933D038F2D0E9484
:104770003F21882319F080933E035BCF81E0FBCF7C
:104780000F931F93CF93DF93C42FD22FFC0185810A
:104790008823C9F0409341030E940F279093400360
:1047A00080933F0380E28C0F883040F4C77081E033
:1047B00001C0880FCA95EAF70E944008DF91CF91A7
:1047C0001F910F9108951091410314133CC08091E3
:1047D0003F03909140030E943827883C910598F54B
:1047E000C0E2CD0F1D1741F180E2810F883040F407
:1047F000177081E001C0880F1A95EAF70E944708F8
:10480000C83020F0802F0E943708D8CF91E08D2F3C
:10481000877001C0990F8A95EAF7892F0E94400896
:10482000802F0E943708D77081E001C0880FDA9589
:10483000EAF70E944708C2CF802F0E943708C8308D
:1048400008F0BCCFF0CF80E28C0F883008F0B6CFF4
:10485000C77081E001C0880FCA95EAF7EACF0F93CD
:10486000FC01CB01E851FC47E730F10590F5EA5136
:10487000FC4C0C94443006E221EE41EE6AE17CE708
:104880000E94C02380E00F91089507E225EE45EED7
:104890006BE17CE7F5CF06E221EE40EE68E17CE7D4
:1048A000EFCF07E225EE44EE69E17CE7E9CF06E2CF
:1048B00021EE42EE6CE17CE7E3CF07E225EE46EE27
:1048C0006DE17CE7DDCF08E221E045EE6EE17CE7BB
:1048D000D7CFFB01858181111092410381E0D3CFB5
:1048E00090934703809346030895E0914603F09127
:1048F0004703309729F00190F081E02D0995089544
:1049000080E008950E9475240895E0914603F09197
:104910004703309721F00280F381E02D0995089537
:10492000DC01E0914603F0914703309739F086E0CF
:104930008C930480F581E02DCD0109950895DC016B
:10494000E0914603F0914703309739F082E08C9371
:104950000680F781E02DCD0109950895A3E0B0E030
:10496000E4EBF4E20C945A309C0180914403909162
:10497000450382179307A1F0309345032093440326
:10498000E0914603F0914703309751F083E089832B
:104990003B832A830084F185E02DCE0101960995A1
:1049A0002396E2E00C947630A3E0B0E0EAEDF4E286
:1049B0000C945A309C0180914203909143038217DA
:1049C0009307A1F03093430320934203E091460301
:1049D000F0914703309751F084E089833B832A8329
:1049E0000084F185E02DCE01019609952396E2E041
:1049F0000C947630CF93DF93C0914301D091440162
:104A000022960E9496268130A1F48091510387FF5F
:104A100010C0C0914101D091420122969DE180E0F9
:104A20002881219621118F5F9150D0F7DF91CF918E
:104A3000089595E0F4CFCF93C82F882319F10E94F1
:104A40009626813011F58091510387FF1EC08C2F6F
:104A5000869586958695C03FA8F4E0914101F09136
:104A60004201E80FF11D228130E0C77081E090E043
:104A700002C0880F991FCA95E2F72823392381E0E5
:104A8000232B09F480E0CF91089580914301909108
:104A90004401FC013296089621912C1721F0E81769
:104AA000F907D1F7EFCF81E0EECF9C01FC01329600
:104AB0008FEF90E04191461751F08F3F19F441116B
:104AC00001C0892F9F5F9630A9F78F3F09F40895A1
:104AD000280F311D87FD3A95F901628308959C01E5
:104AE000FC013296285F3F4F8191861303C0DF019E
:104AF00011971C92E217F307B9F70895FC01862F6E
:104B0000869586958695603F60F4E80FF11D677085
:104B100021E030E001C0220F6A95EAF78281822B02
:104B200082830895FC01862F869586958695603F41
:104B300080F4E80FF11D677081E090E09C0102C0F5
:104B4000220F331F6A95E2F7B901609582816823CD
:104B500062830895CF93C82F0E9496266C2F8130D0
:104B600061F48091510387FF08C0809141019091C9
:104B700042010E947E25CF9108958091430190913A
:104B800044010E945525F7CFCF93C82F0E94962647
:104B90006C2F813061F48091510387FF08C08091B0
:104BA0004101909142010E949225CF9108958091F8
:104BB0004301909144010E946F25F7CF0E949626F1
:104BC000813079F48091510387FF0BC0E09141015E
:104BD000F091420132968EE1DF011D928A95E9F74C
:104BE0000895E0914301F0914401329686E0F4CFBC
:104BF000DC01FB0111969C9111978181981322C0D1
:104C000012968C911297882319F0928189131AC0F9
:104C100013968C911397882319F09381891312C0EE
:104C200015968C911597882319F0958189130AC0E0
:104C300014969C91992321F081E02481291303C0CB
:104C400080E001C081E08170089508950E942526CA
:104C50000895A4E0B0E0EFE2F6E20C945A308F5FE2
:104C600080935E0180915B0190915C01A0915D0158
:104C7000B0915E01BC01CD010E9426262496E2E09F
:104C80000C947630A4E0B0E0E8E4F6E20C945A30FC
:104C900083E080935E0180915B0190915C01A09123
:104CA0005D01B0915E01BC01CD010E9426262496D3
:104CB000E2E00C9476300E9429260895A4E0B0E04A
:104CC000E4E6F6E20C945A3081E080935E01809134
:104CD0005B0190915C01A0915D01B0915E01BC010E
:104CE000CD010E9426262496E2E00C9476300E94A4
:104CF0005E260895A4E0B0E0E0E8F6E20C945A30B5
:104D000091E0811101C090E090935D0180915B0181
:104D100090915C01A0915D01B0915E01BC01CD015B
:104D20000E9426262496E2E00C94763080915D0164
:104D30000895A4E0B0E0EFE9F6E20C945A308093D5
:104D40005C0180915B0190915C01A0915D01B0914B
:104D50005E01BC01CD010E9426262496E2E00C945F
:104D6000763080915C010895A4E0B0E0EAEBF6E2D1
:104D70000C945A3080935B0180915B0190915C01AF
:104D8000A0915D01B0915E01BC01CD010E9426267B
:104D90002496E2E00C94763080915B0108950895AA
:104DA0000E94CF26089585B7806885BF85B7806843
:104DB00085BF08951F921FB61F9211248F939F9352
:104DC000AF93BF9380914803811113C08091A205D6
:104DD0009091A305A091A405B091A5054196A11DB0
:104DE000B11D8093A2059093A305A093A405B09351
:104DF000A505BF91AF919F918F911F901FBE1F90EE
:104E000018950E949D0A0E94FA06089582E084BDCA
:104E100093E095BD9AEF97BD80936E0008952FB7EC
:104E2000F8948091A2059091A305A091A405B0915A
:104E3000A5052FBF0895A4E0B0E0E1E2F7E20C94ED
:104E40005A308FB7F8942091A2053091A305409174
:104E5000A4055091A50529833A834B835C838FBFBA
:104E600069817A818B819C812496E2E00C94763072
:104E70009C014FB7F8948091A2059091A305A09151
:104E8000A405B091A5054FBF821B930B0895A4E024
:104E9000B0E0EDE4F7E20C945830462F572FBC01F8
:104EA0002FB7F8948091A2059091A305A091A40535
:104EB000B091A5052FBF8C019D01041B150B260B7E
:104EC000370BC901B8012496E4E00C94743078944F
:104ED0001F921FB61F9211248F939F93AF93BF937E
:104EE0008091A2059091A305A091A405B091A5057C
:104EF0000196A11DB11D8093A2059093A305A093D7
:104F0000A405B093A505BF91AF919F918F911F907C
:104F10001FBE1F90189587E797E79093010880932D
:104F2000000888E19AE00FB6F894A8958093600095
:104F30000FBE90936000FFCF88E19AE00FB6F8941F
:104F4000A895809360000FBE90936000FFCFFF9202
:104F50000F931F93CF93DF93182FEB011092BC0098
:104F600084EA8093BC000E940F27082FF92E8091BD
:104F7000BC0087FF28C08091B900887F883029F065
:104F80008091B900887F8031A1F51093BB0084E83F
:104F90008093BC000E940F27182F092F8091BC001E
:104FA00087FF1FC02091B900287F80E090E0283162
:104FB00099F081E090E0203411F480E090E0919548
:104FC0008195910909C0802F9F2D0E943827C8170D
:104FD000D90768F68EEF9FEFCDB7DEB7E5E00C940A
:104FE0007330812F902F0E943827C817D907B0F649
:104FF000F1CF8FEF9FEFF0CF1092B9008CE080934C
:10500000B80008950F931F93CF93DF93EB01809324
:10501000BB0084E88093BC000E940F27182F092F43
:105020008091BC0087FF11C02091B900287F81E0EA
:1050300090E0283211F480E090E0919581959109FB
:10504000DF91CF911F910F910895CF3FDC0741F37E
:10505000812F902F0E943827C817D90708F78EEFA5
:105060009FEFEECFA0E0B0E0E8E3F8E20C944F3021
:10507000782E5B016A0189010E940F274C010431DF
:10508000110560F10F3F100769F1C80164E170E09C
:105090000E941C30F62EE72E6F2D7E2D872D0E944C
:1050A000A727EC0197FF09C00F3F1007A9F3C40120
:1050B0000E9438270817190778F77501CA0CDB1CFE
:1050C000EC14FD0411F0D7FF10C084E98093BC00FC
:1050D000CE01CDB7DEB7EDE00C946B30FF24F39436
:1050E000E12CDACF85E0F82EFBCFB801F7018191F2
:1050F0007F010E940228EC01E3CFA0E0B0E0E3E8EA
:10510000F8E20C944F30782E5B016A0189010E940D
:105110000F274C010431110560F10F3F100769F1B1
:10512000C80164E170E00E941C30F62EE72E6F2D5E
:105130007E2D872D0E94A727EC0197FF09C00F3F06
:105140001007A9F3C4010E9438270817190778F738
:105150007501CA0CDB1CEC14FD0411F0D7FF10C064
:1051600084E98093BC00CE01CDB7DEB7EDE00C94AE
:105170006B30FF24F394E12CDACF85E0F82EFBCFDF
:10518000F7018491B8010E940228EC01FFEFEF1AA9
:10519000FF0AE1CFA0E0B0E0E0EDF8E20C944E3081
:1051A000682E962E5A01690178010E940F27782EE9
:1051B000892E0431110530F10F3F100731F1C8017C
:1051C00064E170E00E941C30162F072F612F702FB2
:1051D000862D0E94A727EC0197FF19C0FFEFEF165D
:1051E000FF06A1F3872D982D0E943827E816F906AF
:1051F00068F784E98093BC00CE01CDB7DEB7EEE05E
:105200000C946A3011E000E0E1CF15E0FCCFB7016B
:10521000892D0E940228EC018501CA0CDB1C0C15AB
:105220001D0539F3D7FDE5CFB701F80181918F0155
:105230000E940228EC01F3CF282FCB01BA01309154
:10524000AA053430E1F42F702093E9002FEF30915C
:10525000E80035FD07C035ED3A95F1F70000215023
:105260002111F5CF2091E80025FF09C040E050E072
:105270000E943F2B8091E8008E778093E80008958C
:10528000BC0143E050E084E00E941C290895BC0169
:1052900046E050E084E00E941C290895BC0140E2F1
:1052A00050E084E00E941C290895CF93DF93D82F0B
:1052B000C92F0E94962648E050E06D2F7C2F81E098
:1052C0000E941C2988E0ED2FFC2FA9E4B3E0019097
:1052D0000D928A95E1F7DF91CF910895792F603291
:1052E00031F440E250E0682F82E00E941C290895CA
:1052F000A0E2B0E0EEE7F9E20C945A308091AA0502
:10530000843081F483E08093E9008091E80082FF9B
:1053100009C08091E80085FD09C08091E8008B7785
:105320008093E800A096E2E00C94763040E050E0F4
:1053300060E270E0CE0101960E948E2B8091E80021
:105340008B778093E80060E2CE0101960E9474059D
:10535000E9CF8091A905811109C00E94162D0E94F4
:10536000732D8091E20084608093E2000895109292
:10537000A90508950E945E2681E00E947A2608957C
:105380006091A60581E0611101C080E00E94422683
:1053900008950E9401279091AA0581E0943009F0B8
:1053A00080E06091A6050E945B26089542E061ECD2
:1053B00081E00E94922C42E261EC84E00E94922CF7
:1053C00042E261EC82E00E94922C42E260EC83E0D7
:1053D0000E94922C9091AA0581E0943009F080E01F
:1053E0006091A6050E94292608958091AC05893018
:1053F00089F148F4823009F4A1C0833009F45BC01C
:10540000813041F008958A3009F488C08B3009F466
:105410006DC008958091AB05813A09F04BC0809131
:10542000E800877F8093E8008091AF059091B005F8
:10543000892B61F060E080E090E070E00E94DD2B5D
:105440008091E8008B778093E800089568E089E414
:1054500093E0F3CF8091AB05813261F58091AF0588
:105460009091B0058D7F892B29F58091E800877F89
:105470008093E8008091E80082FF18C09091F300CB
:105480008091F200029731F48091F100813011F0A7
:10549000863021F48091F1000E9499268091E800E5
:1054A0008B778093E8000E94C62C04C08091AA05E7
:1054B0008111E0CF08958091AB05813AD9F78091B1
:1054C000AF059091B005892BA9F78091E800877FFF
:1054D0008093E8008091E80080FFFCCF0E94962630
:1054E0008093F1008091E8008E77DBCF8091AB054F
:1054F000813201F78091AF059091B005892BD1F6EB
:105500008091E800877F8093E8000E94C62C8091FC
:10551000AD050E947A260E949D0A08958091AB05F0
:10552000813241F68091E800877F8093E8000E94F5
:10553000C62C8091AE050E94B42608958091AB05DB
:10554000813A09F0B7CF8091E800877F8093E80027
:105550008091E80080FFFCCF0E94CC26C1CF84B7A9
:10556000877F84BF0FB6F894A8958091600088610A
:1055700080936000109260000FBE80E890E00FB64C
:10558000F89480936100909361000FBE0E9477268B
:1055900008950E94162D0E94732DE2EEF0E08081A6
:1055A0008460808378940E94F62F08958FE591E0BF
:1055B0000E9470240895089508959A014091B105BC
:1055C0005091B2050E94E52A0895AC01CB01D901A2
:1055D000252F33272330310521F168F4213031059F
:1055E00009F443C02230310509F444C080E090E062
:1055F00020E030E024C02132310551F12232310562
:10560000A9F78330910590F7FC01EE0FFF1FE65ECE
:10561000FD4F20813181895E9D4FFC01808190E0AA
:105620000EC0CA019927413069F08230910569F0B6
:10563000E8E0F8E0892BD1F6849190E09F012D936A
:105640003C930895E6EFF7E0F7CFEAEEF7E0F4CF0A
:105650008330910558F6FC01EE0FFF1FE05EFD4F11
:105660002081318189E090E0EACF82E190E027E675
:1056700038E0E5CF8BE590E02CE038E0E0CFAF926A
:10568000BF92CF92DF92FF920F931F93CF93DF933E
:105690006C01EB018A010E94E52CF82E811123C0D8
:1056A0000115110539F0F80180819181C81BD90BD2
:1056B000C80ED91EA12CB12C2097A9F08091E8002A
:1056C00085FD22C08091E8008E778093E800011567
:1056D0001105A1F0F801808191818A0D9B1D9183B4
:1056E000808385E0F82E8F2DDF91CF911F910F9150
:1056F000FF90DF90CF90BF90AF9008950E94E52C6F
:105700008823E1F2F82EEFCFF60181916F018093AB
:10571000F1002197FFEFAF1ABF0ACECFAF92BF9231
:10572000CF92DF92FF920F931F93CF93DF936C0181
:10573000EB018A010E94E52CF82E811123C001158E
:10574000110539F0F80180819181C81BD90BC80E71
:10575000D91EA12CB12C2097A9F08091E80085FDDD
:1057600022C08091E8008B778093E8000115110535
:10577000A1F0F801808191818A0D9B1D9183808326
:1057800085E0F82E8F2DDF91CF911F910F91FF9023
:10579000DF90CF90BF90AF9008950E94E52C8823B2
:1057A000E1F2F82EEFCF8091F100F60181936F01C5
:1057B0002197FFEFAF1ABF0ACECFFC019B0180916A
:1057C000B1059091B2058617970718F0672B61F025
:1057D000C90140E0009771F441110CC08091E800CC
:1057E00082FF35C080E008958091E8008E77809335
:1057F000E800EECF2091AA052223A9F12530A9F1D6
:105800002091E80023FD2DC02091E80022FDE6CF85
:105810002091E80020FFDECF3091F3002091F200CC
:10582000009719F02830310558F041E02830310553
:1058300009F040E02091E8002E772093E800CACFDD
:1058400041914093F10001972F5F3F4FE9CF809145
:10585000AA05882341F0853041F08091E80083FF5C
:10586000BDCF81E0089582E0089583E00895FC01B2
:105870009B018091B1059091B2058617970718F0AA
:10588000672B61F0C90140E0009771F441110CC031
:105890008091E80082FF36C080E008958091E800A2
:1058A0008E778093E800EECF2091AA052223B1F1F4
:1058B0002530B1F12091E80023FD2EC02091E800B1
:1058C00022FDE6CF2091E80020FFDECF3091F300EB
:1058D0002091F200009719F02830310558F041E08E
:1058E0002830310509F040E02091E8002E77209320
:1058F000E800CACF44914093F100319601972F5FA1
:105900003F4FE8CF8091AA05882341F0853041F0D0
:105910008091E80083FFBCCF81E0089582E0089584
:1059200083E00895982F973028F08F708093E900D6
:1059300081E008959093E900242F762F50E0981786
:1059400031F07091EC002091ED005091F00021FDBC
:1059500002C09F5FE8CF3091EB003E7F3093EB00B9
:105960003091ED003D7F3093ED003091EB003160E0
:105970003093EB007093EC002093ED005093F00017
:105980002091EE0027FDE5CF80E008958091AB05E2
:1059900087FF13C08091E80082FF06C08091E80075
:1059A0008B778093E80004C08091AA058111F2CF23
:1059B00008958091AA058823D9F38091E80080FF9B
:1059C000F8CF8091E8008E77ECCF2091E400309101
:1059D000E50095E6A9018091EC008170882331F003
:1059E0008091E80080FF06C080E008952091E800E3
:1059F00022FD1BC08091AA05882391F0853091F08B
:105A00008091EB0085FD10C02091E4003091E5000D
:105A10004217530701F391509111DCCF84E00895B0
:105A200082E0089583E0089581E008950E94852D25
:105A30000E948D2DE0EEF0E0808181608083E8EDB2
:105A4000F0E080818F77808319BCA7EDB0E08C9166
:105A50008E7F8C9380818F7E80831092A90508951C
:105A60000F931F93CF93DF930E94852D0E948D2D5E
:105A7000C8EDD0E088818F778883888180688883AB
:105A800088818F7D888319BC1092AA051092A60583
:105A90001092A8051092A70500EE10E0F801808191
:105AA0008B7F808388818160888342E060E080E032
:105AB0000E94922CE1EEF0E080818E7F8083E2EE06
:105AC000F0E0808181608083808188608083F8013C
:105AD00080818E7F8083888180618883DF91CF91F0
